{
  "address": "0x367DB6d831c3EdAb73a899F5011c0D7034084421",
  "abi": [
    {
      "inputs": [
        {
          "internalType": "string",
          "name": "_gameName",
          "type": "string"
        }
      ],
      "stateMutability": "nonpayable",
      "type": "constructor"
    },
    {
      "inputs": [
        {
          "internalType": "uint256",
          "name": "_qid",
          "type": "uint256"
        },
        {
          "internalType": "string",
          "name": "_question",
          "type": "string"
        },
        {
          "internalType": "string",
          "name": "_answerOne",
          "type": "string"
        },
        {
          "internalType": "string",
          "name": "_answerTwo",
          "type": "string"
        },
        {
          "internalType": "string",
          "name": "_answerThree",
          "type": "string"
        },
        {
          "internalType": "string",
          "name": "_answerFour",
          "type": "string"
        },
        {
          "internalType": "uint256",
          "name": "_correctAnswer",
          "type": "uint256"
        }
      ],
      "name": "addQuestion",
      "outputs": [],
      "stateMutability": "nonpayable",
      "type": "function"
    },
    {
      "inputs": [
        {
          "internalType": "uint256",
          "name": "_id",
          "type": "uint256"
        },
        {
          "internalType": "address",
          "name": "_studentAddress",
          "type": "address"
        },
        {
          "internalType": "string",
          "name": "_studentName",
          "type": "string"
        }
      ],
      "name": "addStudent",
      "outputs": [],
      "stateMutability": "nonpayable",
      "type": "function"
    },
    {
      "inputs": [
        {
          "internalType": "uint256",
          "name": "_id",
          "type": "uint256"
        },
        {
          "internalType": "uint256",
          "name": "_studentAnswer",
          "type": "uint256"
        }
      ],
      "name": "answerQuestion",
      "outputs": [
        {
          "internalType": "bool",
          "name": "",
          "type": "bool"
        }
      ],
      "stateMutability": "nonpayable",
      "type": "function"
    },
    {
      "inputs": [],
      "name": "currentQuestion",
      "outputs": [
        {
          "internalType": "uint256",
          "name": "",
          "type": "uint256"
        }
      ],
      "stateMutability": "view",
      "type": "function"
    },
    {
      "inputs": [],
      "name": "deposit",
      "outputs": [],
      "stateMutability": "payable",
      "type": "function"
    },
    {
      "inputs": [
        {
          "internalType": "uint256",
          "name": "_id",
          "type": "uint256"
        }
      ],
      "name": "fetchAnswers",
      "outputs": [
        {
          "internalType": "string[]",
          "name": "",
          "type": "string[]"
        }
      ],
      "stateMutability": "view",
      "type": "function"
    },
    {
      "inputs": [
        {
          "internalType": "uint256",
          "name": "_qid",
          "type": "uint256"
        }
      ],
      "name": "fetchQuestion",
      "outputs": [
        {
          "internalType": "string",
          "name": "",
          "type": "string"
        }
      ],
      "stateMutability": "view",
      "type": "function"
    },
    {
      "inputs": [
        {
          "internalType": "address",
          "name": "_studentAddress",
          "type": "address"
        }
      ],
      "name": "isThisAddressStudent",
      "outputs": [
        {
          "internalType": "bool",
          "name": "",
          "type": "bool"
        }
      ],
      "stateMutability": "view",
      "type": "function"
    },
    {
      "inputs": [],
      "name": "openGame",
      "outputs": [],
      "stateMutability": "nonpayable",
      "type": "function"
    },
    {
      "inputs": [],
      "name": "owner",
      "outputs": [
        {
          "internalType": "address payable",
          "name": "",
          "type": "address"
        }
      ],
      "stateMutability": "view",
      "type": "function"
    },
    {
      "inputs": [
        {
          "internalType": "address",
          "name": "_address",
          "type": "address"
        }
      ],
      "name": "questionsAnsweredByStudent",
      "outputs": [
        {
          "internalType": "uint256[]",
          "name": "",
          "type": "uint256[]"
        }
      ],
      "stateMutability": "view",
      "type": "function"
    }
  ],
  "transactionHash": "0xdc7040f462fde7c220fab274a31c115ebfb51b0d1603a0ca2bab44d499a71b0d",
  "args": [
    "SpongeBob Quiz"
  ],
  "numDeployments": 4,
  "solcInputHash": "e745b75baa81d6b8ed46e79b2bdbda92",
  "bytecode": "0x60806040523480156200001157600080fd5b5060405162001a0d38038062001a0d833981810160405281019062000037919062000312565b336000806101000a81548173ffffffffffffffffffffffffffffffffffffffff021916908373ffffffffffffffffffffffffffffffffffffffff16021790555080600190805190602001906200008f929190620000c5565b506000600360006101000a81548160ff02191690836001811115620000b957620000b862000363565b5b021790555050620003f7565b828054620000d390620003c1565b90600052602060002090601f016020900481019282620000f7576000855562000143565b82601f106200011257805160ff191683800117855562000143565b8280016001018555821562000143579182015b828111156200014257825182559160200191906001019062000125565b5b50905062000152919062000156565b5090565b5b808211156200017157600081600090555060010162000157565b5090565b6000604051905090565b600080fd5b600080fd5b600080fd5b600080fd5b6000601f19601f8301169050919050565b7f4e487b7100000000000000000000000000000000000000000000000000000000600052604160045260246000fd5b620001de8262000193565b810181811067ffffffffffffffff821117156200020057620001ff620001a4565b5b80604052505050565b60006200021562000175565b9050620002238282620001d3565b919050565b600067ffffffffffffffff821115620002465762000245620001a4565b5b620002518262000193565b9050602081019050919050565b60005b838110156200027e57808201518184015260208101905062000261565b838111156200028e576000848401525b50505050565b6000620002ab620002a58462000228565b62000209565b905082815260208101848484011115620002ca57620002c96200018e565b5b620002d78482856200025e565b509392505050565b600082601f830112620002f757620002f662000189565b5b81516200030984826020860162000294565b91505092915050565b6000602082840312156200032b576200032a6200017f565b5b600082015167ffffffffffffffff8111156200034c576200034b62000184565b5b6200035a84828501620002df565b91505092915050565b7f4e487b7100000000000000000000000000000000000000000000000000000000600052602160045260246000fd5b7f4e487b7100000000000000000000000000000000000000000000000000000000600052602260045260246000fd5b60006002820490506001821680620003da57607f821691505b60208210811415620003f157620003f062000392565b5b50919050565b61160680620004076000396000f3fe60806040526004361061009c5760003560e01c8063cfa5e5cc11610064578063cfa5e5cc146101ac578063d0e30db0146101d5578063d6b349f4146101df578063e7dea0221461021c578063f89992a514610247578063fa12d782146102845761009c565b80632d120b0f146100a157806358333792146100de5780635c8bd43f1461011b5780638da5cb5b14610144578063a7737bd31461016f575b600080fd5b3480156100ad57600080fd5b506100c860048036038101906100c39190610d17565b61029b565b6040516100d59190610e9f565b60405180910390f35b3480156100ea57600080fd5b5061010560048036038101906101009190610f1f565b61042d565b604051610112919061100a565b60405180910390f35b34801561012757600080fd5b50610142600480360381019061013d9190611161565b6104ca565b005b34801561015057600080fd5b5061015961061f565b60405161016691906112b0565b60405180910390f35b34801561017b57600080fd5b5061019660048036038101906101919190610d17565b610643565b6040516101a39190611315565b60405180910390f35b3480156101b857600080fd5b506101d360048036038101906101ce9190611337565b6106ed565b005b6101dd6108b1565b005b3480156101eb57600080fd5b50610206600480360381019061020191906113a6565b61090b565b6040516102139190611401565b60405180910390f35b34801561022857600080fd5b506102316109df565b60405161023e919061142b565b60405180910390f35b34801561025357600080fd5b5061026e60048036038101906102699190610f1f565b6109e5565b60405161027b9190611401565b60405180910390f35b34801561029057600080fd5b50610299610a94565b005b60608060606008600085815260200190815260200160002080546102be90611475565b80601f01602080910402602001604051908101604052809291908181526020018280546102ea90611475565b80156103375780601f1061030c57610100808354040283529160200191610337565b820191906000526020600020905b81548152906001019060200180831161031a57829003601f168201915b5050505050915060096000858152602001908152602001600020805480602002602001604051908101604052809291908181526020016000905b8282101561041d57838290600052602060002001805461039090611475565b80601f01602080910402602001604051908101604052809291908181526020018280546103bc90611475565b80156104095780601f106103de57610100808354040283529160200191610409565b820191906000526020600020905b8154815290600101906020018083116103ec57829003601f168201915b505050505081526020019060010190610371565b5050505090508092505050919050565b60606000600b60008473ffffffffffffffffffffffffffffffffffffffff1673ffffffffffffffffffffffffffffffffffffffff1681526020019081526020016000208054806020026020016040519081016040528092919081815260200182805480156104ba57602002820191906000526020600020905b8154815260200190600101908083116104a6575b5050505050905080915050919050565b60008054906101000a900473ffffffffffffffffffffffffffffffffffffffff1673ffffffffffffffffffffffffffffffffffffffff163373ffffffffffffffffffffffffffffffffffffffff161461052257600080fd5b6000600760008981526020019081526020016000208760405161054591906114e3565b9081526020016040518091039020905060405180608001604052808781526020018681526020018581526020018481525081600001906004610588929190610b19565b5081816001018190555086600860008a815260200190815260200160002090805190602001906105b9929190610b79565b50604051806080016040528087815260200186815260200185815260200184815250600960008a81526020019081526020016000209060046105fc929190610b19565b5081600a60008a8152602001908152602001600020819055505050505050505050565b60008054906101000a900473ffffffffffffffffffffffffffffffffffffffff1681565b60608060086000848152602001908152602001600020805461066490611475565b80601f016020809104026020016040519081016040528092919081815260200182805461069090611475565b80156106dd5780601f106106b2576101008083540402835291602001916106dd565b820191906000526020600020905b8154815290600101906020018083116106c057829003601f168201915b5050505050905080915050919050565b60008054906101000a900473ffffffffffffffffffffffffffffffffffffffff1673ffffffffffffffffffffffffffffffffffffffff163373ffffffffffffffffffffffffffffffffffffffff161461074557600080fd5b81600460008581526020019081526020016000208260405161076791906114e3565b908152602001604051809103902060006101000a81548173ffffffffffffffffffffffffffffffffffffffff021916908373ffffffffffffffffffffffffffffffffffffffff160217905550816005600085815260200190815260200160002060006101000a81548173ffffffffffffffffffffffffffffffffffffffff021916908373ffffffffffffffffffffffffffffffffffffffff16021790555082600660008473ffffffffffffffffffffffffffffffffffffffff1673ffffffffffffffffffffffffffffffffffffffff16815260200190815260200160002081905550600c829080600181540180825580915050600190039060005260206000200160009091909190916101000a81548173ffffffffffffffffffffffffffffffffffffffff021916908373ffffffffffffffffffffffffffffffffffffffff160217905550505050565b60008054906101000a900473ffffffffffffffffffffffffffffffffffffffff1673ffffffffffffffffffffffffffffffffffffffff163373ffffffffffffffffffffffffffffffffffffffff161461090957600080fd5b565b60006001808111156109205761091f6114fa565b5b600360009054906101000a900460ff166001811115610942576109416114fa565b5b1461094c57600080fd5b6000600a6000858152602001908152602001600020549050604051806020016040528085815250600b60003373ffffffffffffffffffffffffffffffffffffffff1673ffffffffffffffffffffffffffffffffffffffff1681526020019081526020016000209060016109c0929190610bff565b50808314156109d35760019150506109d9565b60009150505b92915050565b60025481565b600080600090505b600c80549050811015610a89578273ffffffffffffffffffffffffffffffffffffffff16600c8281548110610a2557610a24611529565b5b9060005260206000200160009054906101000a900473ffffffffffffffffffffffffffffffffffffffff1673ffffffffffffffffffffffffffffffffffffffff161415610a76576001915050610a8f565b8080610a8190611587565b9150506109ed565b50600090505b919050565b60008054906101000a900473ffffffffffffffffffffffffffffffffffffffff1673ffffffffffffffffffffffffffffffffffffffff163373ffffffffffffffffffffffffffffffffffffffff1614610aec57600080fd5b6001600360006101000a81548160ff02191690836001811115610b1257610b116114fa565b5b0217905550565b828054828255906000526020600020908101928215610b68579160200282015b82811115610b67578251829080519060200190610b57929190610b79565b5091602001919060010190610b39565b5b509050610b759190610c4c565b5090565b828054610b8590611475565b90600052602060002090601f016020900481019282610ba75760008555610bee565b82601f10610bc057805160ff1916838001178555610bee565b82800160010185558215610bee579182015b82811115610bed578251825591602001919060010190610bd2565b5b509050610bfb9190610c70565b5090565b828054828255906000526020600020908101928215610c3b579160200282015b82811115610c3a578251825591602001919060010190610c1f565b5b509050610c489190610c70565b5090565b5b80821115610c6c5760008181610c639190610c8d565b50600101610c4d565b5090565b5b80821115610c89576000816000905550600101610c71565b5090565b508054610c9990611475565b6000825580601f10610cab5750610cca565b601f016020900490600052602060002090810190610cc99190610c70565b5b50565b6000604051905090565b600080fd5b600080fd5b6000819050919050565b610cf481610ce1565b8114610cff57600080fd5b50565b600081359050610d1181610ceb565b92915050565b600060208284031215610d2d57610d2c610cd7565b5b6000610d3b84828501610d02565b91505092915050565b600081519050919050565b600082825260208201905092915050565b6000819050602082019050919050565b600081519050919050565b600082825260208201905092915050565b60005b83811015610daa578082015181840152602081019050610d8f565b83811115610db9576000848401525b50505050565b6000601f19601f8301169050919050565b6000610ddb82610d70565b610de58185610d7b565b9350610df5818560208601610d8c565b610dfe81610dbf565b840191505092915050565b6000610e158383610dd0565b905092915050565b6000602082019050919050565b6000610e3582610d44565b610e3f8185610d4f565b935083602082028501610e5185610d60565b8060005b85811015610e8d5784840389528151610e6e8582610e09565b9450610e7983610e1d565b925060208a01995050600181019050610e55565b50829750879550505050505092915050565b60006020820190508181036000830152610eb98184610e2a565b905092915050565b600073ffffffffffffffffffffffffffffffffffffffff82169050919050565b6000610eec82610ec1565b9050919050565b610efc81610ee1565b8114610f0757600080fd5b50565b600081359050610f1981610ef3565b92915050565b600060208284031215610f3557610f34610cd7565b5b6000610f4384828501610f0a565b91505092915050565b600081519050919050565b600082825260208201905092915050565b6000819050602082019050919050565b610f8181610ce1565b82525050565b6000610f938383610f78565b60208301905092915050565b6000602082019050919050565b6000610fb782610f4c565b610fc18185610f57565b9350610fcc83610f68565b8060005b83811015610ffd578151610fe48882610f87565b9750610fef83610f9f565b925050600181019050610fd0565b5085935050505092915050565b600060208201905081810360008301526110248184610fac565b905092915050565b600080fd5b600080fd5b7f4e487b7100000000000000000000000000000000000000000000000000000000600052604160045260246000fd5b61106e82610dbf565b810181811067ffffffffffffffff8211171561108d5761108c611036565b5b80604052505050565b60006110a0610ccd565b90506110ac8282611065565b919050565b600067ffffffffffffffff8211156110cc576110cb611036565b5b6110d582610dbf565b9050602081019050919050565b82818337600083830152505050565b60006111046110ff846110b1565b611096565b9050828152602081018484840111156111205761111f611031565b5b61112b8482856110e2565b509392505050565b600082601f8301126111485761114761102c565b5b81356111588482602086016110f1565b91505092915050565b600080600080600080600060e0888a0312156111805761117f610cd7565b5b600061118e8a828b01610d02565b975050602088013567ffffffffffffffff8111156111af576111ae610cdc565b5b6111bb8a828b01611133565b965050604088013567ffffffffffffffff8111156111dc576111db610cdc565b5b6111e88a828b01611133565b955050606088013567ffffffffffffffff81111561120957611208610cdc565b5b6112158a828b01611133565b945050608088013567ffffffffffffffff81111561123657611235610cdc565b5b6112428a828b01611133565b93505060a088013567ffffffffffffffff81111561126357611262610cdc565b5b61126f8a828b01611133565b92505060c06112808a828b01610d02565b91505092959891949750929550565b600061129a82610ec1565b9050919050565b6112aa8161128f565b82525050565b60006020820190506112c560008301846112a1565b92915050565b600082825260208201905092915050565b60006112e782610d70565b6112f181856112cb565b9350611301818560208601610d8c565b61130a81610dbf565b840191505092915050565b6000602082019050818103600083015261132f81846112dc565b905092915050565b6000806000606084860312156113505761134f610cd7565b5b600061135e86828701610d02565b935050602061136f86828701610f0a565b925050604084013567ffffffffffffffff8111156113905761138f610cdc565b5b61139c86828701611133565b9150509250925092565b600080604083850312156113bd576113bc610cd7565b5b60006113cb85828601610d02565b92505060206113dc85828601610d02565b9150509250929050565b60008115159050919050565b6113fb816113e6565b82525050565b600060208201905061141660008301846113f2565b92915050565b61142581610ce1565b82525050565b6000602082019050611440600083018461141c565b92915050565b7f4e487b7100000000000000000000000000000000000000000000000000000000600052602260045260246000fd5b6000600282049050600182168061148d57607f821691505b602082108114156114a1576114a0611446565b5b50919050565b600081905092915050565b60006114bd82610d70565b6114c781856114a7565b93506114d7818560208601610d8c565b80840191505092915050565b60006114ef82846114b2565b915081905092915050565b7f4e487b7100000000000000000000000000000000000000000000000000000000600052602160045260246000fd5b7f4e487b7100000000000000000000000000000000000000000000000000000000600052603260045260246000fd5b7f4e487b7100000000000000000000000000000000000000000000000000000000600052601160045260246000fd5b600061159282610ce1565b91507fffffffffffffffffffffffffffffffffffffffffffffffffffffffffffffffff8214156115c5576115c4611558565b5b60018201905091905056fea2646970667358221220d33c04adefdd4694a8e5b55e95526d247d8b78a1761bb6813d4d02dcf58711dd64736f6c63430008080033",
  "devdoc": {
    "kind": "dev",
    "methods": {},
    "version": 1
  },
  "userdoc": {
    "kind": "user",
    "methods": {},
    "version": 1
  },
  "storageLayout": {
    "storage": [
      {
        "astId": 32,
        "contract": "contracts/kahoot.sol:kahoot",
        "label": "owner",
        "offset": 0,
        "slot": "0",
        "type": "t_address_payable"
      },
      {
        "astId": 34,
        "contract": "contracts/kahoot.sol:kahoot",
        "label": "nameOfGame",
        "offset": 0,
        "slot": "1",
        "type": "t_string_storage"
      },
      {
        "astId": 36,
        "contract": "contracts/kahoot.sol:kahoot",
        "label": "currentQuestion",
        "offset": 0,
        "slot": "2",
        "type": "t_uint256"
      },
      {
        "astId": 39,
        "contract": "contracts/kahoot.sol:kahoot",
        "label": "isGameOpen",
        "offset": 0,
        "slot": "3",
        "type": "t_enum(GameStatus)111"
      },
      {
        "astId": 117,
        "contract": "contracts/kahoot.sol:kahoot",
        "label": "students",
        "offset": 0,
        "slot": "4",
        "type": "t_mapping(t_uint256,t_mapping(t_string_memory_ptr,t_address))"
      },
      {
        "astId": 121,
        "contract": "contracts/kahoot.sol:kahoot",
        "label": "studentsAddresses",
        "offset": 0,
        "slot": "5",
        "type": "t_mapping(t_uint256,t_address)"
      },
      {
        "astId": 125,
        "contract": "contracts/kahoot.sol:kahoot",
        "label": "studentsIds",
        "offset": 0,
        "slot": "6",
        "type": "t_mapping(t_address,t_uint256)"
      },
      {
        "astId": 132,
        "contract": "contracts/kahoot.sol:kahoot",
        "label": "questions",
        "offset": 0,
        "slot": "7",
        "type": "t_mapping(t_uint256,t_mapping(t_string_memory_ptr,t_struct(Questions)103_storage))"
      },
      {
        "astId": 136,
        "contract": "contracts/kahoot.sol:kahoot",
        "label": "idQuestions",
        "offset": 0,
        "slot": "8",
        "type": "t_mapping(t_uint256,t_string_storage)"
      },
      {
        "astId": 141,
        "contract": "contracts/kahoot.sol:kahoot",
        "label": "questionAnswers",
        "offset": 0,
        "slot": "9",
        "type": "t_mapping(t_uint256,t_array(t_string_storage)dyn_storage)"
      },
      {
        "astId": 145,
        "contract": "contracts/kahoot.sol:kahoot",
        "label": "correctAnswerMapping",
        "offset": 0,
        "slot": "10",
        "type": "t_mapping(t_uint256,t_uint256)"
      },
      {
        "astId": 150,
        "contract": "contracts/kahoot.sol:kahoot",
        "label": "didStudentRespond",
        "offset": 0,
        "slot": "11",
        "type": "t_mapping(t_address,t_array(t_uint256)dyn_storage)"
      },
      {
        "astId": 153,
        "contract": "contracts/kahoot.sol:kahoot",
        "label": "studentsArray",
        "offset": 0,
        "slot": "12",
        "type": "t_array(t_address)dyn_storage"
      },
      {
        "astId": 156,
        "contract": "contracts/kahoot.sol:kahoot",
        "label": "questionsArray",
        "offset": 0,
        "slot": "13",
        "type": "t_array(t_uint256)dyn_storage"
      }
    ],
    "types": {
      "t_address": {
        "encoding": "inplace",
        "label": "address",
        "numberOfBytes": "20"
      },
      "t_address_payable": {
        "encoding": "inplace",
        "label": "address payable",
        "numberOfBytes": "20"
      },
      "t_array(t_address)dyn_storage": {
        "base": "t_address",
        "encoding": "dynamic_array",
        "label": "address[]",
        "numberOfBytes": "32"
      },
      "t_array(t_string_storage)dyn_storage": {
        "base": "t_string_storage",
        "encoding": "dynamic_array",
        "label": "string[]",
        "numberOfBytes": "32"
      },
      "t_array(t_uint256)dyn_storage": {
        "base": "t_uint256",
        "encoding": "dynamic_array",
        "label": "uint256[]",
        "numberOfBytes": "32"
      },
      "t_enum(GameStatus)111": {
        "encoding": "inplace",
        "label": "enum kahoot.GameStatus",
        "numberOfBytes": "1"
      },
      "t_mapping(t_address,t_array(t_uint256)dyn_storage)": {
        "encoding": "mapping",
        "key": "t_address",
        "label": "mapping(address => uint256[])",
        "numberOfBytes": "32",
        "value": "t_array(t_uint256)dyn_storage"
      },
      "t_mapping(t_address,t_uint256)": {
        "encoding": "mapping",
        "key": "t_address",
        "label": "mapping(address => uint256)",
        "numberOfBytes": "32",
        "value": "t_uint256"
      },
      "t_mapping(t_string_memory_ptr,t_address)": {
        "encoding": "mapping",
        "key": "t_string_memory_ptr",
        "label": "mapping(string => address)",
        "numberOfBytes": "32",
        "value": "t_address"
      },
      "t_mapping(t_string_memory_ptr,t_struct(Questions)103_storage)": {
        "encoding": "mapping",
        "key": "t_string_memory_ptr",
        "label": "mapping(string => struct kahoot.Questions)",
        "numberOfBytes": "32",
        "value": "t_struct(Questions)103_storage"
      },
      "t_mapping(t_uint256,t_address)": {
        "encoding": "mapping",
        "key": "t_uint256",
        "label": "mapping(uint256 => address)",
        "numberOfBytes": "32",
        "value": "t_address"
      },
      "t_mapping(t_uint256,t_array(t_string_storage)dyn_storage)": {
        "encoding": "mapping",
        "key": "t_uint256",
        "label": "mapping(uint256 => string[])",
        "numberOfBytes": "32",
        "value": "t_array(t_string_storage)dyn_storage"
      },
      "t_mapping(t_uint256,t_mapping(t_string_memory_ptr,t_address))": {
        "encoding": "mapping",
        "key": "t_uint256",
        "label": "mapping(uint256 => mapping(string => address))",
        "numberOfBytes": "32",
        "value": "t_mapping(t_string_memory_ptr,t_address)"
      },
      "t_mapping(t_uint256,t_mapping(t_string_memory_ptr,t_struct(Questions)103_storage))": {
        "encoding": "mapping",
        "key": "t_uint256",
        "label": "mapping(uint256 => mapping(string => struct kahoot.Questions))",
        "numberOfBytes": "32",
        "value": "t_mapping(t_string_memory_ptr,t_struct(Questions)103_storage)"
      },
      "t_mapping(t_uint256,t_string_storage)": {
        "encoding": "mapping",
        "key": "t_uint256",
        "label": "mapping(uint256 => string)",
        "numberOfBytes": "32",
        "value": "t_string_storage"
      },
      "t_mapping(t_uint256,t_uint256)": {
        "encoding": "mapping",
        "key": "t_uint256",
        "label": "mapping(uint256 => uint256)",
        "numberOfBytes": "32",
        "value": "t_uint256"
      },
      "t_string_memory_ptr": {
        "encoding": "bytes",
        "label": "string",
        "numberOfBytes": "32"
      },
      "t_string_storage": {
        "encoding": "bytes",
        "label": "string",
        "numberOfBytes": "32"
      },
      "t_struct(Questions)103_storage": {
        "encoding": "inplace",
        "label": "struct kahoot.Questions",
        "members": [
          {
            "astId": 100,
            "contract": "contracts/kahoot.sol:kahoot",
            "label": "Answers",
            "offset": 0,
            "slot": "0",
            "type": "t_array(t_string_storage)dyn_storage"
          },
          {
            "astId": 102,
            "contract": "contracts/kahoot.sol:kahoot",
            "label": "correctAnswer",
            "offset": 0,
            "slot": "1",
            "type": "t_uint256"
          }
        ],
        "numberOfBytes": "64"
      },
      "t_uint256": {
        "encoding": "inplace",
        "label": "uint256",
        "numberOfBytes": "32"
      }
    }
  }
}